S013000061737369676E6D656E74332E73726563A5
S11300000C9434000C9451000C9451000C94510045
S11300100C9451000C9451000C9451000C94510018
S11300200C9451000C9451000C9451000C94510008
S11300300C9451000C94DD000C9451000C9451006C
S11300400C9451000C9451000C9451000C945100E8
S11300500C9451000C9451000C9451000C945100D8
S11300600C9451000C94510011241FBECFEFD8E022
S1130070DEBFCDBF11E0A0E0B1E0E4E6F8E002C0ED
S113008005900D92A431B107D9F721E0A4E1B1E0C4
S113009001C01D92AA32B207E1F70E94BA000C9483
S11300A030040C94000080E680937C0085EE8093FD
S11300B07A000895109229011092280144E0EAE799
S11300C0F0E0A9E7B0E0808180648083808184FFD0
S11300D0FDCF9C912091280130912901892F90E036
S11300E0880F991F820F931F9093290180932801F1
S11300F02FE788E391E0215080409040E1F700C071
S11301000000415001F780912801909129019695B2
S11301108795969587959093290180932801089552
S11301209093C5008093C40088E18093C10086E069
S11301308093C2000895CF93DF93FC012081222392
S1130140B1F0DC011196E0ECF0E0C6ECD0E0908177
S113015095FFFDCF28832FE38DE093E0215080406D
S11301609040E1F700C000002D912111F0CFDF9104
S1130170CF9108950E94530083E390E00E94900081
S113018080E091E00E949B002FE38DE093E02150FA
S113019080409040E1F700C0000081E080936F0050
S11301A08EEE95E8909385008093840010928000F1
S11301B084E0809381007894FFCF1F920F920FB652
S11301C00F9211242F933F934F935F936F937F93D9
S11301D08F939F93AF93BF93CF93DF93EF93FF934B
S11301E0C1E8D0E018820E945A00809128019091C1
S11301F029019F938F938DE091E09F938F931F929A
S113020084E18F9384E191E09F938F930E9438015E
S113021084E191E00E949B002FE38DE093E0215064
S113022080409040E1F700C000008EEE95E8909386
S113023085008093840084E088838DB79EB70896F8
S11302400FB6F8949EBF0FBE8DBFFF91EF91DF9163
S1130250CF91BF91AF919F918F917F916F915F915A
S11302604F913F912F910F900FBE0F901F901895B3
S1130270AEE0B0E0EEE3F1E00C9407040D891E89D2
S11302808F89988D26E02C831A83098397FF02C0F7
S113029080E090E801979E838D83AE01455E5F4FB9
S11302A0698D7A8DCE0101960E9468014D815E812F
S11302B057FD0AC02F813885421753070CF49A0161
S11302C0F801E20FF31F10822E96E4E00C9423044D
S11302D0ABE0B0E0EEE6F1E00C94F9036C017B01D5
S11302E08A01FC0117821682838181FFCCC1CE0171
S11302F001963C01F6019381F70193FD859193FFEB
S113030081917F01882309F4BAC1853239F493FDC0
S1130310859193FF81917F01853229F4B60190E0A4
S11303200E945F03E7CF912C212C312CFFE1F315C0
S1130330D8F08B3279F038F4803279F08332A1F43A
S1130340232D20611DC08D3261F0803369F4232D8B
S1130350216016C0832D8260382EE32DE4603E2E8A
S11303602AC0F32DF8601DC037FC2DC020ED280FE6
S11303702A3040F08E32B9F436FC81C1232D20643A
S1130380322E19C036FE06C08AE0989E200D112434
S1130390922E11C0EAE02E9E200D1124222EF32D60
S11303A0F0623F2E08C08C3621F4832D8068382EED
S11303B002C0883641F4F70193FD859193FF819142
S11303C07F018111B3CF982F9F7D9554933028F4EA
S11303D00C5F1F4F9FE399830DC0833631F0833741
S11303E071F0833509F059C021C0F80180818983F7
S11303F00E5F1F4F88248394912C530113C028014E
S1130400F2E04F0E511CF801A080B18036FE03C00B
S1130410692D70E002C06FEF7FEFC5010E945403A5
S11304204C018201F32DFF773F2E16C0280122E0F4
S1130430420E511CF801A080B18036FE03C0692D24
S113044070E002C06FEF7FEFC5010E9449034C01C9
S1130450F32DF0683F2E820133FC1BC0822D90E007
S113046088169906B0F4B60180E290E00E945F031A
S11304702A94F4CFF50137FC859137FE81915F0111
S1130480B60190E00E945F0321102A9421E0821AB1
S113049091088114910471F7E8C0843611F089360B
S11304A041F5F80137FE07C0608171818281938133
S11304B00C5F1F4F08C060817181072E000C880BF0
S11304C0990B0E5F1F4FF32DFF763F2E97FF09C048
S11304D090958095709561957F4F8F4F9F4FF068F1
S11304E03F2E2AE030E0A3010E949B03882E861849
S11304F045C0853731F4232D2F7EB22E2AE030E01B
S113050025C0932D997FB92E8F36C1F018F4883504
S113051079F0B5C0803719F0883721F0B0C0E92FE1
S1130520E061BE2EB4FE0DC0FB2DF460BF2E09C0E9
S113053034FE0AC0292F2660B22E06C028E030E01F
S113054005C020E130E002C020E132E0F801B7FE4E
S113055007C060817181828193810C5F1F4F06C047
S11305606081718180E090E00E5F1F4FA3010E94C3
S11305709B03882E8618FB2DFF773F2E36FE0DC079
S1130580232D2E7FA22E891458F434FE0BC032FC86
S113059009C0832D8E7EA82E05C0B82CA32C03C0C1
S11305A0B82C01C0B92CA4FE0FC0FE01E80DF11D4A
S11305B08081803321F49A2D997EA92E09C0A2FE50
S11305C006C0B394B39404C08A2D867809F0B3941A
S11305D0A3FC11C0A0FE06C0B21488F4280C922C0F
S11305E09B180EC0B21460F4B60180E290E00E9441
S11305F05F03B394F7CFB21418F42B1802C0982CED
S1130600212CA4FE10C0B60180E390E00E945F0399
S1130610A2FE17C0A1FC03C088E790E002C088E5F1
S113062090E0B6010CC08A2D867859F0A1FE02C074
S11306308BE201C080E2A7FC8DE2B60190E00E944B
S11306405F03891438F4B60180E390E00E945F03ED
S11306509A94F7CF8A94F301E80DF11D8081B601D5
S113066090E00E945F038110F5CF222009F442CE6E
S1130670B60180E290E00E945F032A94F6CFF6016F
S11306808681978102C08FEF9FEF2B96E2E10C9455
S11306901504FC010590615070400110D8F7809555
S11306A090958E0F9F1F0895FC016150704001903A
S11306B00110D8F7809590958E0F9F1F08950F9382
S11306C01F93CF93DF93FB01238121FD03C08FEFA1
S11306D09FEF2CC022FF16C04681578124813581AB
S11306E04217530744F4A081B1819D012F5F3F4F0E
S11306F0318320838C93268137812F5F3F4F37834B
S1130700268314C08B01EC01FB010084F185E02DEC
S11307100995892BE1F6D80116968D919C9117972E
S1130720019617969C938E931697CE01DF91CF91E5
S11307301F910F910895FA01AA27283051F1203111
S113074081F1E8946F936E7F6E5F7F4F8F4F9F4F61
S1130750AF4FB1E03ED0B4E03CD0670F781F891FA3
S11307609A1FA11D680F791F8A1F911DA11D6A0F71
S1130770711D811D911DA11D20D009F468943F9124
S11307802AE0269F11243019305D3193DEF6CF0123
S11307900895462F4770405D4193B3E00FD0C9F7E9
S11307A0F6CF462F4F70405D4A3318F0495D31FD56
S11307B04052419302D0A9F7EACFB4E0A6959795A9
S11307C0879577956795BA95C9F70097610571057F
S11307D008959B01AC010A2E0694579547953795C9
S11307E02795BA95C9F7620F731F841F951FA01D23
S11307F008952F923F924F925F926F927F928F92C1
S11308009F92AF92BF92CF92DF92EF92FF920F939B
S11308101F93CF93DF93CDB7DEB7CA1BDB0B0FB6A5
S1130820F894DEBF0FBECDBF09942A883988488862
S11308305F846E847D848C849B84AA84B984C884F8
S1130840DF80EE80FD800C811B81AA81B981CE0FEF
S1130850D11D0FB6F894DEBF0FBECDBFED010895D4
S1070860F894FFCF36
S1130864436F6E6E6563746564210D0A00253364F9
S10708740D0A000065
S9030000FC
