S00E00007061727430322E73726563FD
S11300000C9434000C9446000C9446000C94460066
S11300100C9446000C9446000C9446000C94460044
S11300200C9446000C9446000C9446000C94460034
S11300300C9446000C9446000C9446000C94460024
S11300400C9446000C9446000C9446000C94460014
S11300500C9446000C949C000C9446000C944600AE
S11300600C9446000C94460011241FBECFEFD8E038
S1130070DEBFCDBF21E0A0E0B1E001C01D92A230FF
S1130080B207E1F70E946B000C94D9000C940000B5
S113009016BC809100019091010167E070E00E941C
S11300A0B10067BD82E084BD85E085BD85B327B519
S11300B090E002C0959587952A95E2F780FFF6CFE8
S11300C015BC27B581E090E002C0880F991F2A95DE
S11300D0E2F785BB089517B88FEF8AB9ECE7F0E033
S11300E01082808180648083808180628083EAE7DB
S11300F0F0E0808187608083808180688083808154
S11301008062808310927B008081886080838081FC
S113011080648083789403E012E4D0ECC1E80BB9E6
S11301200E9448001BB90E944800DBB90E944800A5
S1130130CBB90E944800F3CF1F920F920FB60F92D3
S113014011248F939F938091790090E09093010103
S1130150809300019F918F910F900FBE0F901F907D
S1130160189597FB072E16F4009407D077FD09D055
S11301700E94C50007FC05D03EF4909581959F4FE1
S11301800895709561957F4F0895AA1BBB1B51E19B
S113019007C0AA1FBB1FA617B70710F0A61BB70BF3
S11301A0881F991F5A95A9F780959095BC01CD0198
S10901B00895F894FFCF4E
S9030000FC
