S00E00007061727430352E73726563FA
S11300000C9434000C9449000C943E000C943E0073
S11300100C943E000C943E000C943E000C943E0064
S11300200C943E000C943E000C943E000C943E0054
S11300300C943E000C943E000C943E000C943E0044
S11300400C943E000C943E000C943E000C943E0034
S11300500C943E000C943E000C943E000C943E0024
S11300600C943E000C943E0011241FBECFEFD8E048
S1130070DEBFCDBF0E9440000C9465000C940000CC
S1130080229A529881E08DBB83E080936900789432
S1130090FFCF1F920F920FB60F9211242F938F93BD
S11300A09F93E09A2A9A2FE38DE093E021508040B9
S11300B09040E1F700C000002A989F918F912F9102
S11100C00F900FBE0F901F901895F894FFCF6D
S9030000FC
