:100000000C9434000C9446000C9446000C9446006A
:100010000C9446000C9446000C9446000C94460048
:100020000C9446000C9446000C9446000C94460038
:100030000C9446000C9446000C9446000C94460028
:100040000C9446000C9446000C9446000C94460018
:100050000C9446000C948E000C9446000C944600C0
:100060000C9446000C94460011241FBECFEFD8E03C
:10007000DEBFCDBF21E0A0E0B1E001C01D92A23003
:10008000B207E1F70E9448000C94A3000C94000012
:10009000E0E8F0E08081826A8083E1E8F0E080813E
:1000A0008B61808384EC99E0909387008093860035
:1000B0008FEF84B917B88AB9ECE7F0E0108280813D
:1000C00080648083808180628083EAE7F0E08081C1
:1000D0008760808380818068808380818062808364
:1000E00010927B008081886080838081806480831F
:1000F0008FE390E090938900809388007894E8E8FB
:10010000F0E08091000190910101918380838FE163
:100110009EE40197F1F700C00000F3CF1F920F9209
:100120000FB60F9211248F939F938091790090E0E6
:1001300090930101809300019F918F910F900FBECA
:0A0140000F901F901895F894FFCF60
:00000001FF
