S00E00007061727430342E73726563FB
S11300000C9434000C9446000C9446000C94460066
S11300100C9446000C9446000C9446000C94460044
S11300200C9446000C9446000C9446000C94460034
S11300300C9446000C9455000C9446000C94460015
S11300400C9446000C9446000C9446000C94460014
S11300500C9446000C9446000C9446000C94460004
S11300600C9446000C94460011241FBECFEFD8E038
S1130070DEBFCDBF21E0A0E0B1E001C01D92A230FF
S1130080B207E1F70E9448000C947E000C94000033
S113009082E084B915B886E886BD81E080936E005D
S11300A014BC85E085BD7894FFCF1F920F920FB6E4
S11300B00F9211248F939F9381E085BB809100015F
S11300C0909101018638910549F495B184E089271E
S11300D085B9109201011092000109C080910001BC
S11300E090910101019690930101809300019F91E9
S11300F08F910F900FBE0F901F901895F894FFCF1B
S9030000FC
