S00E00007061727430332E73726563FC
S11300000C9434000C943E000C943E000C943E007E
S11300100C943E000C943E000C943E000C943E0064
S11300200C943E000C943E000C943E000C943E0054
S11300300C943E000C943E000C943E000C943E0044
S11300400C943E000C943E000C943E000C943E0034
S11300500C943E000C943E000C943E000C943E0024
S11300600C943E000C943E0011241FBECFEFD8E048
S1130070DEBFCDBF0E944C000C9455000C940000D0
S113008086E886BD84B584BD85B5856085BDA89B9D
S1130090FECF14BCA89A0895229A15B8C4E00E9411
S11100A0400085B18C2785B9FACFF894FFCFC4
S9030000FC
