:100000000C9434000C9463000C943E000C943E005D
:100010000C943E000C943E000C943E000C943E0068
:100020000C943E000C943E000C943E000C943E0058
:100030000C943E000C943E000C943E000C943E0048
:100040000C943E000C943E000C943E000C943E0038
:100050000C943E000C943E000C943E000C943E0028
:100060000C943E000C943E0011241FBECFEFD8E04C
:10007000DEBFCDBF0E9440000C9491000C940000A4
:1000800087E880937A0080E680937C008FEF84B9C4
:100090005A9A10928900109288008DE08093810016
:1000A00083E880938000E89AE9E6F0E0808182604E
:1000B00080837894EAE7F0E08081806480838081A7
:1000C00084FFFDCFF9CF1F920F920FB60F9211242C
:1000D0002F938F939F93E09A289902C0289A01C08A
:1000E0002898809179008D3D80F088E592E090938A
:1000F0008900809388002FEF83ED90E321508040AA
:100100009040E1F700C0000004C0109289001092F6
:1001100088009F918F912F910F900FBE0F901F908D
:060120001895F894FFCFD2
:00000001FF
