S00D000070617274312E737265632F
S11300000C9434000C943E000C943E000C943E007E
S11300100C943E000C943E000C943E000C943E0064
S11300200C943E000C943E000C943E000C943E0054
S11300300C943E000C943E000C943E000C943E0044
S11300400C943E000C943E000C943E000C943E0034
S11300500C943E000C943E000C943E000C943E0024
S11300600C943E000C943E0011241FBECFEFD8E048
S1130070DEBFCDBF0E9440000C9458000C940000D9
S113008084E084B915B82A9A2FE880ED93E02150D2
S113009080409040E1F700C000002A982FE880EDEE
S11300A093E0215080409040E1F700C00000EBCF86
S10700B0F894FFCFEE
S9030000FC
